:040000008031CC2857
:1000080080310B1D09002000101C1F288D1C8C1A24
:1000180020280C1E0D1920288D1D8F1A20288F1DB1
:100028000C1B20288E1E0D1A20288E1D8F182028A4
:10003800D401D40A2028D4018D1C3728101C8C1A0E
:1000480038280C1E0D1938288D1D8F1A38288F1D39
:100058000C1B38288E1E0D1A38288E1D8F1838282C
:10006800D301D30A3828D3018C1E4F280D1D0C1A32
:1000780050288D1D101850288D1C8F1A50288F1D40
:100088000C1B50288E1E0D1A50288E1D8F185028B4
:10009800D801D80A5028D8010D1D67288C1E0C1AC3
:1000A80068288D1D101868288D1C8F1A68288F1DC8
:1000B8000C1B68288E1E0D1A68288E1D8F1868283C
:1000C800D701D70A6828D7010C1E7F288D1D8C1AE6
:1000D80080280D1D101880288D1C8F1A80288F1DD0
:1000E8000C1B80288E1E0D1A80288E1D8F188028C4
:1000F800D001D00A8028D0018D1D97280C1E8C1A9B
:1001080098280D1D101898288D1C8F1A98288F1D57
:100118000C1B98288E1E0D1A98288E1D8F1898284B
:10012800CF01CF0A9828CF01FF302100A607031C72
:10013800A70327082604031DCA28C830A600A7015C
:100148007D087C040319B828FF30FC07031CFD0355
:100158007D087C04031DB8288531F7258031EB0123
:10016800EB0A0130E800E9017B087A040319CA2880
:10017800FF30FA07031CFB037B087A04031DCA2817
:1001880022008C152000EA01EA0ACD010B110900B2
:1001980088018031CF284830FA01FB01FC01FD01BC
:1001A80084000030850020308631142680312100FB
:1001B800A001A101A201A301A401A5012000013011
:1001C800E8000030E9000130EA00EB00EC00ED0047
:1001D800EE00EF002100C830A6000030A700200084
:1001E8002E29F201F301B0258031C330F100CD3062
:1001F800F000F00BFD28F10BFD2871258031C3308C
:10020800F100CD30F000F00B0729F10B0729F20AB5
:100218000319F30A7308803AFF0080307F02031D38
:1002280017290330720203180800F728F601F60AA6
:100238003F304D2580318E258031F5006400213A0C
:10024800031D2A297E304D258031F601F608031951
:1002580001341C29683021009900193097001030AA
:10026800F9003930F8001B30F700F70B3929F80B83
:100278003929F90B39294029773021008C002300CE
:100288008C01FF3021008D0023008D01A830210052
:100298008E00EA308F0023008F010130210090008A
:1002A8002300900168302100990019308E170E172D
:1002B80023009B0090309D0024309E002100910176
:1002C8000830950024008D0123009F010C309B000D
:1002D8009C010E3021009500C8308B168B1720002A
:1002E800A000A101A200A301A400A501A600A701E6
:1002F800A800A901AA00AB01AC00FF30AD01B00114
:10030800B10122008C008D008E008F0090006130BA
:100318002000DE00220002300E158E140E14F900A3
:100328004530F800A930F700F70B9829F80B982901
:10033800F90B98299F292000B201B20AB2080319C3
:10034800AE291A218031003A00300319013020000B
:10035800B200A229F52080312000B401B501B60110
:10036800B70142304D25803120003608483E8600CE
:10037800423087018100C029C1296400640020003F
:10038800B60A0319B70A00303702053003193602D6
:10039800031CB529B801B9013808A03E86008701B9
:1003A8008E258031810064002000B80A0319B90A3B
:1003B80000303902053003193802031CD029C20164
:1003C800C3014208A03E860087014208E12580312A
:1003D8000319B40A0319B50A64002000C20A0319F4
:1003E800C30A00304302053003194202031CE52901
:1003F8003408053A3504031D072A2B304D25803172
:100408002000B401B501BA01BB0159304D25803136
:1004180020003A08483E8600593087018100142A96
:10042800152A640064002000BA0A0319BB0A0030C8
:100438003B02053003193A02031C092ABC01BD011D
:100448003C08A03E860087018E258031810064002B
:100458002000BC0A0319BD0A00303D02053003190B
:100468003C02031C242AC401C5014408A03E86009E
:1004780087014408E12580310319B40A0319B50A34
:1004880064002000C40A0319C50A0030450205307B
:1004980003194402031C392A3408053A3504031D9C
:1004A800592A2B304D258031640023009D185E2A7F
:1004B8001D1D632A1D129D131D169D171D08200062
:1004C8008F1E942AFF30A007031CA10321082004D3
:1004D800031D982AEB08031D982A6C080319842A1F
:1004E800E108031D842A4C30DE00DF01DF0A220008
:1004F8000F122000EC01E001E00AED258031982A76
:1005080060080319982A4D30DE00E101E10ADF0195
:10051800DF0A22000F162000E001EC01EC0A812A14
:10052800C830A000A101E1018F1DC82AFF30A20731
:10053800031CA30323082204031DCC2AEB08031D74
:10054800CC2A6E080319B82AE208031DB82A4E30CF
:10055800DE00DF01DF0A22000F112000EE01ED01AD
:10056800ED0AED258031CC2A6D080319CC2A4F30CD
:10057800DE00DF01DF0A22000F152000ED01EE0189
:10058800EE0AE201E20AB52AC830A200A301E2019C
:100598000C1FFC2AFF30A407031CA503250824040C
:1005A800031D002BEB08031D002B64080319EC2A1C
:1005B800E508031DEC2A5030DE00DF01DF0A2200C7
:1005C8008C132000E401E301E30AED258031002BC0
:1005D80063080319002B5130DE00DF01DF0A220017
:1005E8008C172000E301E401E40AE501E50AE92AA1
:1005F800C830A400A501E5018E1E302BFF30A607E8
:10060800031CA70327082604031D342BEB08031D2E
:10061800342B6F080319202BE708031D202B5230B9
:10062800DE00DF01DF0A22000E122000EF01E601E2
:10063800E60AED258031342B66080319342B533034
:10064800DE00DF01DF0A22000E162000E601EF01BE
:10065800EF0AE701E70A1D2BC830A600A701E7014A
:100668008E1D872BFF30AA07031CAB032B082A0417
:10067800031D8A2BEB08031D8A2BE80A0319E90AD4
:100688006908803AFF0080307F02031D4D2B04303B
:100698006802031C762B01302000E800E901762B64
:1006A8005430DE00DF01DF0A22000E118E144830BC
:1006B8000E146F2B5630DE00DF01DF0A22000E1504
:1006C8008E105B2B5530DE00DF01DF0A2200483038
:1006D8000E158E140E10FC008A30FD008A2BE801DE
:1006E800E9018A2B20006908003A03197C2B732B37
:1006F8006808013A0319542B033A03195E2B013A8F
:100708000319662B732BC830AA00AB0120000D1EFD
:10071800BC2B8F18C02BFF30A807031CA90329087E
:100728002804031DC02B6A080319AC2BCE08031D2F
:10073800AC2B5730DE00DF01DF0A22008C112000CD
:10074800EA01CD01CD0A4830FA008A30FB00C02BFF
:100758004D080319C02B5830DE00DF01DF0A2200E4
:100768008C152000CD01EA01EA0ACE01CE0AC02B81
:10077800C830A800A901CE018F1C0A2CFF30AC0795
:10078800031CAD032D082C04031D0E2C6B08031944
:10079800F92BDD08031DF92B4130DE00DF01DF0AEC
:1007A800B0258031EB01DC01DC0A4830FC008A30DE
:1007B800FD0068036904031DE52B22000E118E1449
:1007C800ED2B6808023A6904031DEF2B22000E1571
:1007D8008E100E140E2C6808033A6904031D0E2CA3
:1007E80022000E158E140E100E2C5C0803190E2C08
:1007F8004230DE00DF01DF0A71258031D1258031EA
:10080800DD01DD0A0130E800E9010E2CC830AC003A
:10081800AD01DD0122000F1C0F1E202C0F198C1FAB
:10082800202C0E1E202C42302000DE00DF01DF0AC3
:1008380071258031D12580312000540803193C2CC2
:100848004808493A031D2B2CD601D60A2C2CD60170
:10085800D608031D492C4930E72580312130210075
:1008680097001710712580310130E800E901492C03
:1008780056080319492C4B30DE00DF01DF0A193016
:100888002100970017142000D60153080319622C81
:1008980048084A3A031D532CD501D50A542CD501D2
:1008A800D508031D692C4A30E7258031210017102F
:1008B800712580310130E800E901692C55080319D8
:1008C800692C4B30CA258031D501500803197B2C7F
:1008D8004808463A031D732CD201D20A742CD2015F
:1008E800D208031D822C4630DB258031822C520829
:1008F8000319822C4830CA258031D20120004F08C4
:100908000319952C4808473A031D8D2CD101D10AAB
:100918008E2CD101D108031D9C2C4730DB2580315A
:100928009C2C510803199C2C4830CA258031D101D0
:10093800200058080319AF2C4808433A031DA72C78
:10094800DA01DA0AA82CDA01DA08031DB62C4330DA
:10095800DB258031B62C5A080319B62C4530CA2538
:100968008031DA01200057080319C92C4808443A95
:10097800031DC12CD901D90AC22CD901D908031DDC
:10098800D02C4430DB258031D02C59080319D02CC9
:100998004530CA258031D90120003108803AFF004E
:1009A8008A307F02031DDA2CF03030020318E12C64
:1009B8002000B00A0319B10AF12C2000B001B101DE
:1009C800101C8D18F12C8C1E0C1AF12C0D1D8D1974
:1009D800F12C5930DE00DF01DF0A5F080319592ABC
:1009E800B301B30AAE01AF01BE01BF015E084D25D8
:1009F800803120003E08483E860087015E0881005D
:100A0800052D062D64002000BE0A0319BF0A003018
:100A18003F02053003193E02031CFA2CC001C10134
:100A28004008A03E860087018E2580318100640041
:100A38002000C00A0319C10A003041020530031919
:100A48004002031C142DC601C7014608A03E8600BB
:100A580087014608E12580310319AE0A0319AF0A58
:100A6800C60A0319C70A00304702053003194602AF
:100A7800031C292D2E08053A2F04031D472D2B3062
:100A8800B3014D2580312000B308031DF62CDF018A
:100A9800592AF000F101F201F301F4012000111AC2
:100AA8006D2DF10A0319F20A0319F30A0319F40A5E
:100AB8007408F2258031031D6B2D98307302031DD5
:100AC8006B2D96307202031D6B2D80307102031C52
:100AD800522D700823009A00080022000F140E15EA
:100AE8008E140E140F162000EC01EC0AE00122000F
:100AF8000F152000EE01EE0AED0122008C172000F0
:100B0800E401E40AE30122000E162000EF01EF0AD7
:100B1800E6010800F001F101F201F3012000911A49
:100B2800AD2DF00A0319F10A0319F20A0319F30AA1
:100B38007308F2258031031DAB2D98307202031D16
:100B4800AB2D96307102031DAB2D80307002031C53
:100B5800922D23001908080022000F100F12200000
:100B6800E001E00AEC0122000F112000ED01ED0A7E
:100B7800EE0122008C132000E301E30AE4012200C5
:100B88000E122000E601E60AEF010800DE00DF0190
:100B9800DF0A210017142000080022008C1520000D
:100BA800EA01EA0ACD01DC01EB01EB0A0800DE00EC
:100BB800DF01DF0A210017100800483E8400850184
:100BC800000801060800DE00EB01EB0ADF01DF0A7E
:100BD80008004830FC008A30FD000800803AFF0019
:100BE80080307F02080022000F140E158E140E1498
:100BF8000F162000EC01EC0AE00122000F1520007E
:100C0800EE01EE0AED0122008C172000E401E40A4F
:100C1800E30122000E162000EF01EF0AE6010800AA
:0C0C2800640080010131890B152E00349E
:020000040001F9
:04000E002CF9FFDDED
:00000001FF
