:040000008031A12882
:1000080080310B1D09002000101C18288D1C8C1A2B
:1000180019280C1E0D1919288D1D0D1A19288F184D
:100028001928B501B50A1928B5018D1C2928101CF5
:100038008C1A2A280C1E0D192A288D1D0D1A2A28FB
:100048008F182A28B401B40A2A28B4018C1E3A2829
:100058000D1D0C1A3B288D1D10183B288D1C0D1AE0
:100068003B288F183B28B901B90A3B28B9010D1D57
:100078004B288C1E0C1A4C288D1D10184C288D1CD2
:100088000D1A4C288F184C28B801B80A4C28B8010A
:100098000C1E5C288D1D8C1A5D280D1D10185D28FE
:1000A8008D1C0D1A5D288F185D28B101B10A5D28D5
:1000B800B1018D1D6D280C1E8C1A6E280D1D10188F
:1000C8006E288D1C0D1A6E288F186E28B001B00A84
:1000D8006E28B001FF30E907031CEA036A086904C7
:1000E800031D9F28C830E900EA012D082C040319D4
:1000F8008D28FF30AC07031CAD032D082C04031D0D
:100108008D2884313E248031EC01EC0A0130E7006F
:10011800E8012B082A0403199F28FF30AA07031CAB
:10012800AB032B082A04031D9F2822008C152000EE
:10013800EB01EB0AAE010B11090088018031A428FC
:100148002030FD01840000308500293084314E24A0
:1001580080310130FA00FB00FC00E7000030E800C5
:10016800C830E9000030EA000130EB00EC00ED0097
:100178002000F728F201F30110248031C330F10088
:10018800CD30F000F00BC628F10BC62800248031D2
:10019800C330F100CD30F000F00BD028F10BD0289F
:1001A800F20A0319F30A7308803AFF0080307F02CD
:1001B800031DE0280330720203180800C028F60166
:1001C800F60A3F30BA238031DE238031F50064001F
:1001D800213A031DF3287E30BA238031F601F60850
:1001E80003190134E5286830210099001930970077
:1001F8001030F9003930F8001B30F700F70B0229EE
:10020800F80B0229F90B02290929773021008C0003
:1002180023008C01FF3021008D0023008D01A830C0
:1002280021008E00EA308F0023008F010130210069
:1002380090002300900168302100990019308E1732
:100248000E1723009B0090309D0024309E00210053
:1002580091010830950024008D0123009F010C3086
:100268009B009C010E3021009500C8308B168B171F
:100278002000C900CA01CB00FF30CC01CF01D0015A
:1002880022008C008D008E008F00900061302000CD
:10029800C0000230F9004530F800A930F700F70B2C
:1002A8005329F80B5329F90B53295A292000D10156
:1002B800D10AD10803196929E3208031003A0030B6
:1002C800031901302000D1005D29BE2080312000B3
:1002D800D301D401D501D6014230BA2380312000A0
:1002E8005508203E86004230870181007B297C2901
:1002F800640064002000D50A0319D60A00305602AB
:10030800053003195502031C7029D701D801570875
:10031800253E86008701DE238031810064002000AD
:10032800D70A0319D80A00305802053003195702B2
:10033800031C8B29E101E2016108253E8600870143
:1003480061082D2480310319D30A0319D40A6400E3
:100358002000E10A0319E20A00306202053003199D
:100368006102031CA0295308053A5404031DC2293D
:100378002B30BA2380312000D301D401D901DA010E
:100388005930BA23803120005908203E8600593060
:1003980087018100CF29D029640064002000D90A90
:1003A8000319DA0A00305A02053003195902031CEE
:1003B800C429DB01DC015B08253E86008701DE23BA
:1003C8008031810064002000DB0A0319DC0A003058
:1003D8005C02053003195B02031CDF29E301E40119
:1003E8006308253E8600870163082D2480310319A0
:1003F800D30A0319D40A64002000E30A0319E40AA3
:1004080000306402053003196302031CF429530801
:10041800053A5404031D142A2B30BA238031640092
:1004280023009D18192A1D1D1E2A1D129D131D1615
:100438009D171D0820000D1E502A8F18542AFF30C2
:10044800C907031CCA034A084904031D542A6B0838
:100458000319402AAF08031D402A5730C000C101C4
:10046800C10A22008C112000EB01AE01AE0A48300F
:10047800AA008A30AB00542A2E080319542A58308F
:10048800C000C101C10A22008C152000AE01EB0199
:10049800EB0AAF01AF0A542AC830C900CA01AF013C
:1004A8008F1C8A2AFF30CB07031CCC034C084B0453
:1004B800031D8E2A6C080319722ABF08031D722AAD
:1004C8004130C000C101C10A10248031EC01BE01D5
:1004D800BE0A4830AC008A30AD008E2A3E080319A7
:1004E8008E2A4230C000C101C10A00248031220096
:1004F8008C152000EB01EB0AAE01BE01EC01EC0A01
:10050800BF01BF0A0130E700E8018E2AC830CB00DE
:10051800CC01BF0135080319A92A2008493A031D4F
:10052800982AB701B70A992AB701B708031DB62A4E
:1005380049303324803121302100970017100024DE
:1005480080310130E700E801B62A37080319B62AD6
:100558004B30C000C101C10A19302100970017149F
:100568002000B70134080319CF2A20084A3A031D8E
:10057800C02AB601B60AC12AB601B608031DD62A92
:100588004A30332480312100171000248031013093
:10059800E700E801D62A36080319D62A4B3020246A
:1005A8008031B60131080319E82A2008463A031DAC
:1005B800E02AB301B30AE12AB301B308031DEF2A05
:1005C800463027248031EF2A33080319EF2A4830B0
:1005D80020248031B301200030080319022B2008A1
:1005E800473A031DFA2AB201B20AFB2AB201B2083D
:1005F800031D092B473027248031092B32080319A2
:10060800092B483020248031B20120003908031911
:100618001C2B2008433A031D142BBB01BB0A152BC6
:10062800BB01BB08031D232B433027248031232B18
:100638003B080319232B453020248031BB012000BF
:1006480038080319362B2008443A031D2E2BBA010B
:10065800BA0A2F2BBA01BA08031D3D2B44302724B0
:1006680080313D2B3A0803193D2B45302024803139
:10067800BA0120005008803AFF008A307F02031D2B
:10068800472BF0304F0203184E2B2000CF0A0319D6
:10069800D00A5E2B2000CF01D001101C8D185E2BD4
:1006A8008C1E0C1A5E2B0D1D8D195E2B5930C00047
:1006B800C101C10A41080319142AD201D20ACD0185
:1006C800CE01DD01DE014008BA23803120005D083B
:1006D800203E8600870140088100722B732B64003E
:1006E8002000DD0A0319DE0A00305E020530031916
:1006F8005D02031C672BDF01E0015F08253E8600D1
:100708008701DE238031810064002000DF0A03199D
:10071800E00A00306002053003195F02031C812BD8
:10072800E501E6016508253E8600870165082D2458
:1007380080310319CD0A0319CE0AE50A0319E60A1E
:1007480000306602053003196502031C962B4D081C
:10075800053A4E04031DB42B2B30D201BA23803145
:100768002000D208031D632BC101142AF000F101F7
:10077800F201F301F4012000111ADA2BF10A03192E
:10078800F20A0319F30A0319F40A740839248031A8
:10079800031DD82B98307302031DD82B9630720294
:1007A800031DD82B80307102031CBF2B7008230057
:1007B8009A000800F001F101F201F3012000911AFA
:1007C800FD2BF00A0319F10A0319F20A0319F30AB7
:1007D800730839248031031DFB2B98307202031DE6
:1007E800FB2B96307102031DFB2B80307002031C1B
:1007F800E22B23001908080022000F14FA01FA0A54
:10080800FD01FC01FC0AFB012000C501C50AC40169
:10081800ED01ED0AC701080022000F10FD01FD0AD5
:10082800FA01FB01FB0AFC012000C401C40AC5014E
:10083800C701C70AED010800C000C101C10A2100B3
:10084800171420000800C000C101C10A21001710B8
:100858000800203E84008501000801060800C00049
:10086800EC01EC0AC101C10A0800803AFF0080309F
:100878007F02080022000F14FA01FA0AFD01FC01A8
:10088800FC0AFB012000C501C50AC401ED01ED0AFF
:10089800C7010800640080010131890B4F2C003426
:020000040001F9
:04000E002CF9FFDDED
:00000001FF
